:020000040000FA
:1000000000020010CD000000D1000000D30000006D
:10001000D5000000D7000000D9000000000000005B
:10002000000000000000000000000000DB000000F5
:10003000DD00000000000000DF000000E100000023
:10004000E3000000E3000000E3000000E300000024
:10005000E3000000E3000000E3000000E300000014
:10006000E3000000E3000000E3000000E300000004
:10007000E3000000E3000000E3000000E3000000F4
:10008000E3000000E3000000E3000000E3000000E4
:10009000E3000000E3000000E3000000E3000000D4
:1000A000E3000000E3000000E3000000E3000000C4
:1000B000E3000000E3000000E3000000E3000000B4
:1000C000E3000000E3000000E300000008480047F0
:1000D000FEE7FEE7FEE7FEE7FEE7FEE7FEE7FEE7F8
:1000E000FEE7FEE703480449024A044B704700005C
:1000F00001010000000000100002001000000010CC
:100100004FF000016FF005024FF000036FF006049E
:100110004FF0200A00F014F8022D0FF2040E24D044
:10012000012D0FF2040E23D00FF2040E00F010F890
:10013000AAF1010ABAF1000F0FF2020EEAD119D0AA
:1001400002F0010503F001064FEA45053544F74684
:1001500001F0010502F0010633464FEA52024FEA70
:10016000C5752A444FEA6101F746A1EB0401F74641
:100170002144F746000000000000000000000000DD
:10018000000000000000000000000000000000006F
:10019000000000000000000000000000000000005F
:1001A000000000000000000000000000000000004F
:1001B000000000000000000000000000000000003F
:1001C000000000000000000000000000000000002F
:1001D000000000000000000000000000000000001F
:1001E000000000000000000000000000000000000F
:1001F00000000000000000000000000000000000FF
:1002000000000000000000000000000000000000EE
:1002100000000000000000000000000000000000DE
:1002200000000000000000000000000000000000CE
:1002300000000000000000000000000000000000BE
:1002400000000000000000000000000000000000AE
:10025000000000000000000000000000000000009E
:10026000000000000000000000000000000000008E
:10027000000000000000000000000000000000007E
:10028000000000000000000000000000000000006E
:10029000000000000000000000000000000000005E
:1002A000000000000000000000000000000000004E
:1002B000000000000000000000000000000000003E
:1002C000000000000000000000000000000000002E
:1002D000000000000000000000000000000000001E
:1002E000000000000000000000000000000000000E
:1002F000000000000000000000000000FFFFFFFF02
:0400000500000101F5
:00000001FF
