:020000040000FA
:1000000000020010CD000000D1000000D30000006D
:10001000D5000000D7000000D9000000000000005B
:10002000000000000000000000000000DB000000F5
:10003000DD00000000000000DF000000E100000023
:10004000E3000000E3000000E3000000E300000024
:10005000E3000000E3000000E3000000E300000014
:10006000E3000000E3000000E3000000E300000004
:10007000E3000000E3000000E3000000E3000000F4
:10008000E3000000E3000000E3000000E3000000E4
:10009000E3000000E3000000E3000000E3000000D4
:1000A000E3000000E3000000E3000000E3000000C4
:1000B000E3000000E3000000E3000000E3000000B4
:1000C000E3000000E3000000E300000008480047F0
:1000D000FEE7FEE7FEE7FEE7FEE7FEE7FEE7FEE7F8
:1000E000FEE7FEE703480449024A044B704700005C
:1000F0008101000000C00720000200100000001075
:1001000002F0010503F001064FEA4505354470474A
:10011000AAF101074FF0010808FA07F54FEA520269
:100120002A44CF464FF00103CF464FEA5202CF4652
:100130004FF00003CF4601F001054FEA5101012DB8
:1001400016460FF20409E3D00FF20409EDD1294459
:1001500006F00105012D4FF00009F946E2D0F946FD
:10016000E6D101FA0AF111444FEA410119447047FE
:100170006FEA040404F101042144704721447047EC
:100180004FF000016FF0060202F101024FF0000390
:100190004FF005044FF0040AFFF7B2FF022DE7D03D
:1001A000012DEBD0FFF7C7FFAAF1010ABAF1000F4A
:1001B000FEE700000000000000000000000000005A
:1001C000000000000000000000000000000000002F
:1001D000000000000000000000000000000000001F
:1001E000000000000000000000000000000000000F
:1001F00000000000000000000000000000000000FF
:1002000000000000000000000000000000000000EE
:1002100000000000000000000000000000000000DE
:1002200000000000000000000000000000000000CE
:1002300000000000000000000000000000000000BE
:1002400000000000000000000000000000000000AE
:10025000000000000000000000000000000000009E
:10026000000000000000000000000000000000008E
:10027000000000000000000000000000000000007E
:10028000000000000000000000000000000000006E
:10029000000000000000000000000000000000005E
:1002A000000000000000000000000000000000004E
:1002B000000000000000000000000000000000003E
:1002C000000000000000000000000000000000002E
:1002D000000000000000000000000000000000001E
:1002E000000000000000000000000000000000000E
:1002F000000000000000000000000000FFFFFFFF02
:0400000500000101F5
:00000001FF
