:020000040000FA
:1000000000020010CD000000D1000000D30000006D
:10001000D5000000D7000000D9000000000000005B
:10002000000000000000000000000000DB000000F5
:10003000DD00000000000000DF000000E100000023
:10004000E3000000E3000000E3000000E300000024
:10005000E3000000E3000000E3000000E300000014
:10006000E3000000E3000000E3000000E300000004
:10007000E3000000E3000000E3000000E3000000F4
:10008000E3000000E3000000E3000000E3000000E4
:10009000E3000000E3000000E3000000E3000000D4
:1000A000E3000000E3000000E3000000E3000000C4
:1000B000E3000000E3000000E3000000E3000000B4
:1000C000E3000000E3000000E300000008480047F0
:1000D000FEE7FEE7FEE7FEE7FEE7FEE7FEE7FEE7F8
:1000E000FEE7FEE703480449024A044B704700005C
:1000F0008B01000000C0072000020010000000106B
:1001000002F0010503F001064FEA4505354470474A
:100110000AF1010601FA06F14FEA420201EB020878
:1001200008EB03074FEA6707B94607EA01034FEAFE
:1001300059094FF0010505FA0AF5A5F1010509EA8B
:10014000050229FA0AF9494670476FEA04040AF1E0
:1001500001064FF0010909FA06F9A9F1010904EABB
:10016000090404F1010421447047214470474FF011
:10017000010909FA0AF9A9F1010902EA0902AF46DF
:100180006FEA080208F10108FEE74FF000016FF086
:1001900005024FF000034FF005044FF0040A002958
:1001A0000FF20205E3D4002A0FF20205DFD4FFF7B5
:1001B000A7FF022DC9D0012DD7D0FFF7A9FFAAF1C3
:1001C000010ABAF1000FF2D198FAA8F108F0010182
:1001D0000129D5D0D8D0FEE70000000000000000C3
:1001E000000000000000000000000000000000000F
:1001F00000000000000000000000000000000000FF
:1002000000000000000000000000000000000000EE
:1002100000000000000000000000000000000000DE
:1002200000000000000000000000000000000000CE
:1002300000000000000000000000000000000000BE
:1002400000000000000000000000000000000000AE
:10025000000000000000000000000000000000009E
:10026000000000000000000000000000000000008E
:10027000000000000000000000000000000000007E
:10028000000000000000000000000000000000006E
:10029000000000000000000000000000000000005E
:1002A000000000000000000000000000000000004E
:1002B000000000000000000000000000000000003E
:1002C000000000000000000000000000000000002E
:1002D000000000000000000000000000000000001E
:1002E000000000000000000000000000000000000E
:1002F000000000000000000000000000FFFFFFFF02
:0400000500000101F5
:00000001FF
